:020000020000FC
:1000000014C01895189518951895189518950BC043
:100010001895189518951895189518951895189578
:100020001895189518950CB118950FED0DBFE0E6D1
:10003000F0E000270193F030E9F7EF3DD9F7EE2724
:10004000FF27002411242224332444245524662429
:10005000772488249924AA24BB24CC24DD24EE24EC
:10006000FF240027112722273327442755276627F7
:10007000772788279927AA27BB27CC27DD277894BD
:0E00800010E81AB90000000000000000FBCFDD
:00000001FF
