:020000020000FC
:1000000033C0189518951895189518950CC0189523
:100010001895189518951895189518951895189578
:100020001895189518950F930FB70F931F932F934B
:100030003F9300916400109165002091660030911B
:1000400067000F5F1F4F2F4F3F4F009364001093C7
:10005000650020936600309367003F912F911F91B8
:100060000F910FBF0F9118950FED0DBFE0E6F0E077
:1000700000270193F030E9F7EF3DD9F7EE27FF278E
:100080000024112422243324442455246624772474
:1000900088249924AA24BB24CC24DD24EE24FF2424
:1000A000002711272227332744275527662777273C
:1000B00088279927AA27BB27CC27DD278A9A8B9ADE
:1000C000C39ABB9809B7026009BF01E003BF7894E7
:1000D000B39B30C0929A9398009164001091650090
:1000E000023190F01A3780F002B314E0102712BBEF
:1000F0000027F89402BF009364000093650000930A
:1001000066000093670078940000009160001091F1
:10011000610020916200309163000F5F1F4F2F4FED
:100120003F4F009360001093610020936200309372
:0A0130006300CECF939A9298CFCFD0
:00000001FF
